{"abi":[{"type":"function","name":"MINIMUM_ETH","inputs":[],"outputs":[{"name":"","type":"uint256","internalType":"uint256"}],"stateMutability":"view"},{"type":"function","name":"getPlayerInfo","inputs":[{"name":"fundingAddress","type":"address","internalType":"address"}],"outputs":[{"name":"","type":"tuple","internalType":"struct Gamelord.PlayerInfo","components":[{"name":"amountWagered","type":"uint256","internalType":"uint256"},{"name":"team","type":"uint8","internalType":"enum Gamelord.Team"}]}],"stateMutability":"view"},{"type":"function","name":"getPlayers","inputs":[],"outputs":[{"name":"","type":"address[]","internalType":"address[]"}],"stateMutability":"view"},{"type":"function","name":"releaseFunds","inputs":[{"name":"winningTeam","type":"uint8","internalType":"enum Gamelord.Team"}],"outputs":[],"stateMutability":"nonpayable"},{"type":"function","name":"wager","inputs":[{"name":"team","type":"uint8","internalType":"enum Gamelord.Team"}],"outputs":[],"stateMutability":"payable"}],"bytecode":{"object":"0x6080604052348015600f57600080fd5b50610c4c8061001f6000396000f3fe60806040526004361061004a5760003560e01c806355507b931461004f57806359328401146100715780638b5b9ccc146100a7578063ba7d4be7146100c9578063d5e3af45146100dc575b600080fd5b34801561005b57600080fd5b5061006f61006a366004610809565b610104565b005b34801561007d57600080fd5b5061009161008c366004610831565b6103df565b60405161009e9190610870565b60405180910390f35b3480156100b357600080fd5b506100bc610451565b60405161009e91906108a9565b61006f6100d7366004610809565b6104b3565b3480156100e857600080fd5b506100f6655af3107a400081565b60405190815260200161009e565b6000805b60015481101561019d57600060018281548110610127576101276108f6565b6000918252602090912001546001600160a01b031690508360018111156101505761015061085a565b6001600160a01b038216600090815260208190526040902060019081015460ff16908111156101815761018161085a565b03610194578261019081610922565b9350505b50600101610108565b5060006101aa8247610951565b905060005b60015481101561036f576000600182815481106101ce576101ce6108f6565b6000918252602090912001546001600160a01b031690508460018111156101f7576101f761085a565b6001600160a01b038216600090815260208190526040902060019081015460ff16908111156102285761022861085a565b036103665761025860405180604001604052806009815260200168706c6179657220257360b81b815250826105a6565b6102846040518060400160405280600a81526020016962616c616e636520257360b01b815250476105ef565b6102b860405180604001604052806012815260200171616d6f756e74506572506c6179657220257360701b815250846105ef565b600080826001600160a01b03168560405160006040518083038185875af1925050503d8060008114610306576040519150601f19603f3d011682016040523d82523d6000602084013e61030b565b606091505b50915091508161031a84610634565b8260405160200161032c929190610989565b604051602081830303815290604052906103625760405162461bcd60e51b81526004016103599190610a14565b60405180910390fd5b5050505b506001016101af565b5060005b6001548110156103cd5760008060018381548110610393576103936108f6565b60009182526020808320909101546001600160a01b0316835282019290925260400181209081556001908101805460ff1916905501610373565b506103da600160006107d7565b505050565b60408051808201909152600080825260208201526001600160a01b03821660009081526020818152604091829020825180840190935280548352600180820154919284019160ff16908111156104375761043761085a565b60018111156104485761044861085a565b90525092915050565b606060018054806020026020016040519081016040528092919081815260200182805480156104a957602002820191906000526020600020905b81546001600160a01b0316815260019091019060200180831161048b575b5050505050905090565b655af3107a40003410156105095760405162461bcd60e51b815260206004820152601b60248201527f596f75206e65656420746f207370656e64206d6f7265204554482100000000006044820152606401610359565b3360009081526020819052604081208054349290610528908490610a27565b909155505033600090815260208190526040902060019081018054839260ff1990911690838181111561055d5761055d61085a565b0217905550506001805480820182556000919091527fb10e2d527612073b26eecdfd717e6a320cf44b4afac2b0732d9fcbe2b7fa0cf60180546001600160a01b03191633179055565b6105eb82826040516024016105bc929190610a40565b60408051601f198184030181529190526020810180516001600160e01b031663319af33360e01b179052610774565b5050565b6105eb8282604051602401610605929190610a6a565b60408051601f198184030181529190526020810180516001600160e01b03166309710a9d60e41b179052610774565b60408051602880825260608281019093526000919060208201818036833701905050905060005b601481101561076d576000610671826013610a8c565b61067c906008610a9f565b610687906002610b9a565b61069a906001600160a01b038716610951565b60f81b9050600060108260f81c6106b19190610ba6565b60f81b905060008160f81c60106106c89190610bc8565b8360f81c6106d69190610be4565b60f81b90506106e482610780565b856106f0866002610a9f565b81518110610700576107006108f6565b60200101906001600160f81b031916908160001a90535061072081610780565b8561072c866002610a9f565b610737906001610a27565b81518110610747576107476108f6565b60200101906001600160f81b031916908160001a905350506001909201915061065b9050565b5092915050565b61077d816107b6565b50565b6000600a60f883901c10156107a75761079e60f883901c6030610bfd565b60f81b92915050565b61079e60f883901c6057610bfd565b80516a636f6e736f6c652e6c6f67602083016000808483855afa5050505050565b508054600082559060005260206000209081019061077d91905b8082111561080557600081556001016107f1565b5090565b60006020828403121561081b57600080fd5b81356002811061082a57600080fd5b9392505050565b60006020828403121561084357600080fd5b81356001600160a01b038116811461082a57600080fd5b634e487b7160e01b600052602160045260246000fd5b81518152602082015160408201906002811061089c57634e487b7160e01b600052602160045260246000fd5b8060208401525092915050565b6020808252825182820181905260009190848201906040850190845b818110156108ea5783516001600160a01b0316835292840192918401916001016108c5565b50909695505050505050565b634e487b7160e01b600052603260045260246000fd5b634e487b7160e01b600052601160045260246000fd5b6000600182016109345761093461090c565b5060010190565b634e487b7160e01b600052601260045260246000fd5b6000826109605761096061093b565b500490565b60005b83811015610980578181015183820152602001610968565b50506000910152565b7502330b4b632b2103a379039b2b7321022ba34103a37960551b8152600083516109ba816016850160208801610965565b6101d160f51b60169184019182015283516109dc816018840160208801610965565b01601801949350505050565b60008151808452610a00816020860160208601610965565b601f01601f19169290920160200192915050565b60208152600061082a60208301846109e8565b80820180821115610a3a57610a3a61090c565b92915050565b604081526000610a5360408301856109e8565b905060018060a01b03831660208301529392505050565b604081526000610a7d60408301856109e8565b90508260208301529392505050565b81810381811115610a3a57610a3a61090c565b8082028115828204841417610a3a57610a3a61090c565b600181815b80851115610af1578160001904821115610ad757610ad761090c565b80851615610ae457918102915b93841c9390800290610abb565b509250929050565b600082610b0857506001610a3a565b81610b1557506000610a3a565b8160018114610b2b5760028114610b3557610b51565b6001915050610a3a565b60ff841115610b4657610b4661090c565b50506001821b610a3a565b5060208310610133831016604e8410600b8410161715610b74575081810a610a3a565b610b7e8383610ab6565b8060001904821115610b9257610b9261090c565b029392505050565b600061082a8383610af9565b600060ff831680610bb957610bb961093b565b8060ff84160491505092915050565b60ff818116838216029081169081811461076d5761076d61090c565b60ff8281168282160390811115610a3a57610a3a61090c565b60ff8181168382160190811115610a3a57610a3a61090c56fea26469706673582212208f28888045d8d7ecb9ebfd83384d71b6b5d67004db4638c21fdb8fb1ee2e091c64736f6c63430008190033","linkReferences":{}},"methodIdentifiers":{"MINIMUM_ETH()":"d5e3af45","getPlayerInfo(address)":"59328401","getPlayers()":"8b5b9ccc","releaseFunds(uint8)":"55507b93","wager(uint8)":"ba7d4be7"},"id":20}