{"abi":[{"type":"function","name":"increment","inputs":[],"outputs":[],"stateMutability":"nonpayable"},{"type":"function","name":"number","inputs":[],"outputs":[{"name":"","type":"uint256","internalType":"uint256"}],"stateMutability":"view"},{"type":"function","name":"setNumber","inputs":[{"name":"newNumber","type":"uint256","internalType":"uint256"}],"outputs":[],"stateMutability":"nonpayable"},{"type":"event","name":"NumberIncremented","inputs":[{"name":"newNumber","type":"uint256","indexed":false,"internalType":"uint256"}],"anonymous":false},{"type":"event","name":"NumberSet","inputs":[{"name":"newNumber","type":"uint256","indexed":false,"internalType":"uint256"}],"anonymous":false}],"bytecode":{"object":"0x6080604052348015600f57600080fd5b506101808061001f6000396000f3fe608060405234801561001057600080fd5b50600436106100415760003560e01c80633fb5c1cb146100465780638381f58a1461005b578063d09de08a14610076575b600080fd5b61005961005436600461010a565b61007e565b005b61006460005481565b60405190815260200160405180910390f35b6100596100b9565b60008190556040518181527f9ec8254969d1974eac8c74afb0c03595b4ffe0a1d7ad8a7f82ed31b9c85425919060200160405180910390a150565b6000805490806100c883610123565b91905055507f209c6035516d19d8e68fcdb2bf5bd0a95b70e35f6ca85925c34b9cdfdd71396060005460405161010091815260200190565b60405180910390a1565b60006020828403121561011c57600080fd5b5035919050565b60006001820161014357634e487b7160e01b600052601160045260246000fd5b506001019056fea2646970667358221220b0599bdc12d73291271a97c0591f2f6959795fe016d5b931a6fb0a1488ca742e64736f6c63430008190033","linkReferences":{}},"methodIdentifiers":{"increment()":"d09de08a","number()":"8381f58a","setNumber(uint256)":"3fb5c1cb"},"storageLayout":{"storage":[{"astId":38871,"contract":"src/Counter.sol:Counter","label":"number","offset":0,"slot":"0","type":"t_uint256"}],"types":{"t_uint256":{"encoding":"inplace","label":"uint256","numberOfBytes":"32"}}},"id":25}