{"abi":[{"type":"constructor","inputs":[],"stateMutability":"nonpayable"},{"type":"function","name":"UPGRADE_INTERFACE_VERSION","inputs":[],"outputs":[{"name":"","type":"string","internalType":"string"}],"stateMutability":"view"},{"type":"function","name":"increment","inputs":[],"outputs":[],"stateMutability":"nonpayable"},{"type":"function","name":"initialize","inputs":[{"name":"initialOwner","type":"address","internalType":"address"}],"outputs":[],"stateMutability":"nonpayable"},{"type":"function","name":"number","inputs":[],"outputs":[{"name":"","type":"uint256","internalType":"uint256"}],"stateMutability":"view"},{"type":"function","name":"owner","inputs":[],"outputs":[{"name":"","type":"address","internalType":"address"}],"stateMutability":"view"},{"type":"function","name":"proxiableUUID","inputs":[],"outputs":[{"name":"","type":"bytes32","internalType":"bytes32"}],"stateMutability":"view"},{"type":"function","name":"renounceOwnership","inputs":[],"outputs":[],"stateMutability":"nonpayable"},{"type":"function","name":"setNumber","inputs":[{"name":"newNumber","type":"uint256","internalType":"uint256"}],"outputs":[],"stateMutability":"nonpayable"},{"type":"function","name":"transferOwnership","inputs":[{"name":"newOwner","type":"address","internalType":"address"}],"outputs":[],"stateMutability":"nonpayable"},{"type":"function","name":"upgradeToAndCall","inputs":[{"name":"newImplementation","type":"address","internalType":"address"},{"name":"data","type":"bytes","internalType":"bytes"}],"outputs":[],"stateMutability":"payable"},{"type":"event","name":"Initialized","inputs":[{"name":"version","type":"uint64","indexed":false,"internalType":"uint64"}],"anonymous":false},{"type":"event","name":"NumberIncremented","inputs":[{"name":"newNumber","type":"uint256","indexed":false,"internalType":"uint256"}],"anonymous":false},{"type":"event","name":"NumberSet","inputs":[{"name":"newNumber","type":"uint256","indexed":false,"internalType":"uint256"}],"anonymous":false},{"type":"event","name":"OwnershipTransferred","inputs":[{"name":"previousOwner","type":"address","indexed":true,"internalType":"address"},{"name":"newOwner","type":"address","indexed":true,"internalType":"address"}],"anonymous":false},{"type":"event","name":"Upgraded","inputs":[{"name":"implementation","type":"address","indexed":true,"internalType":"address"}],"anonymous":false},{"type":"error","name":"AddressEmptyCode","inputs":[{"name":"target","type":"address","internalType":"address"}]},{"type":"error","name":"ERC1967InvalidImplementation","inputs":[{"name":"implementation","type":"address","internalType":"address"}]},{"type":"error","name":"ERC1967NonPayable","inputs":[]},{"type":"error","name":"FailedInnerCall","inputs":[]},{"type":"error","name":"InvalidInitialization","inputs":[]},{"type":"error","name":"NotInitializing","inputs":[]},{"type":"error","name":"OwnableInvalidOwner","inputs":[{"name":"owner","type":"address","internalType":"address"}]},{"type":"error","name":"OwnableUnauthorizedAccount","inputs":[{"name":"account","type":"address","internalType":"address"}]},{"type":"error","name":"UUPSUnauthorizedCallContext","inputs":[]},{"type":"error","name":"UUPSUnsupportedProxiableUUID","inputs":[{"name":"slot","type":"bytes32","internalType":"bytes32"}]}],"bytecode":{"object":"0x60a06040523060805234801561001457600080fd5b5061001d610022565b6100d4565b7ff0c57e16840df040f15088dc2f81fe391c3923bec73e23a9662efc9c229c6a00805468010000000000000000900460ff16156100725760405163f92ee8a960e01b815260040160405180910390fd5b80546001600160401b03908116146100d15780546001600160401b0319166001600160401b0390811782556040519081527fc7f505b2f371ae2175ee4913f4499e1f2633a7b5936321eed1cdaeb6115181d29060200160405180910390a15b50565b608051610b2a6100fd6000396000818161043e0152818161046701526105ad0152610b2a6000f3fe6080604052600436106100915760003560e01c80638da5cb5b116100595780638da5cb5b1461011e578063ad3cb1cc14610165578063c4d66de8146101a3578063d09de08a146101c3578063f2fde38b146101d857600080fd5b80633fb5c1cb146100965780634f1ef286146100b857806352d1902d146100cb578063715018a6146100f35780638381f58a14610108575b600080fd5b3480156100a257600080fd5b506100b66100b13660046108f9565b6101f8565b005b6100b66100c6366004610944565b610233565b3480156100d757600080fd5b506100e0610252565b6040519081526020015b60405180910390f35b3480156100ff57600080fd5b506100b661026f565b34801561011457600080fd5b506100e060005481565b34801561012a57600080fd5b507f9016d09d72d40fdae2fd8ceac6b6234c7706214fd39c1cd1e609a0528c199300546040516001600160a01b0390911681526020016100ea565b34801561017157600080fd5b50610196604051806040016040528060058152602001640352e302e360dc1b81525081565b6040516100ea9190610a2a565b3480156101af57600080fd5b506100b66101be366004610a5d565b610283565b3480156101cf57600080fd5b506100b661039f565b3480156101e457600080fd5b506100b66101f3366004610a5d565b6103f0565b60008190556040518181527f9ec8254969d1974eac8c74afb0c03595b4ffe0a1d7ad8a7f82ed31b9c85425919060200160405180910390a150565b61023b610433565b610244826104d8565b61024e82826104e0565b5050565b600061025c6105a2565b50600080516020610ad583398151915290565b6102776105eb565b6102816000610646565b565b7ff0c57e16840df040f15088dc2f81fe391c3923bec73e23a9662efc9c229c6a008054600160401b810460ff16159067ffffffffffffffff166000811580156102c95750825b905060008267ffffffffffffffff1660011480156102e65750303b155b9050811580156102f4575080155b156103125760405163f92ee8a960e01b815260040160405180910390fd5b845467ffffffffffffffff19166001178555831561033c57845460ff60401b1916600160401b1785555b610345866106b7565b61034d6106c8565b60008055831561039757845460ff60401b19168555604051600181527fc7f505b2f371ae2175ee4913f4499e1f2633a7b5936321eed1cdaeb6115181d29060200160405180910390a15b505050505050565b6000805490806103ae83610a78565b91905055507f209c6035516d19d8e68fcdb2bf5bd0a95b70e35f6ca85925c34b9cdfdd7139606000546040516103e691815260200190565b60405180910390a1565b6103f86105eb565b6001600160a01b03811661042757604051631e4fbdf760e01b8152600060048201526024015b60405180910390fd5b61043081610646565b50565b306001600160a01b037f00000000000000000000000000000000000000000000000000000000000000001614806104ba57507f00000000000000000000000000000000000000000000000000000000000000006001600160a01b03166104ae600080516020610ad5833981519152546001600160a01b031690565b6001600160a01b031614155b156102815760405163703e46dd60e11b815260040160405180910390fd5b6104306105eb565b816001600160a01b03166352d1902d6040518163ffffffff1660e01b8152600401602060405180830381865afa92505050801561053a575060408051601f3d908101601f1916820190925261053791810190610a9f565b60015b61056257604051634c9c8ce360e01b81526001600160a01b038316600482015260240161041e565b600080516020610ad5833981519152811461059357604051632a87526960e21b81526004810182905260240161041e565b61059d83836106d0565b505050565b306001600160a01b037f000000000000000000000000000000000000000000000000000000000000000016146102815760405163703e46dd60e11b815260040160405180910390fd5b3361061d7f9016d09d72d40fdae2fd8ceac6b6234c7706214fd39c1cd1e609a0528c199300546001600160a01b031690565b6001600160a01b0316146102815760405163118cdaa760e01b815233600482015260240161041e565b7f9016d09d72d40fdae2fd8ceac6b6234c7706214fd39c1cd1e609a0528c19930080546001600160a01b031981166001600160a01b03848116918217845560405192169182907f8be0079c531659141344cd1fd0a4f28419497f9722a3daafe3b4186f6b6457e090600090a3505050565b6106bf610726565b6104308161076f565b610281610726565b6106d982610777565b6040516001600160a01b038316907fbc7cd75a20ee27fd9adebab32041f755214dbc6bffa90cc0225b39da2e5c2d3b90600090a280511561071e5761059d82826107dc565b61024e610852565b7ff0c57e16840df040f15088dc2f81fe391c3923bec73e23a9662efc9c229c6a0054600160401b900460ff1661028157604051631afcd79f60e31b815260040160405180910390fd5b6103f8610726565b806001600160a01b03163b6000036107ad57604051634c9c8ce360e01b81526001600160a01b038216600482015260240161041e565b600080516020610ad583398151915280546001600160a01b0319166001600160a01b0392909216919091179055565b6060600080846001600160a01b0316846040516107f99190610ab8565b600060405180830381855af49150503d8060008114610834576040519150601f19603f3d011682016040523d82523d6000602084013e610839565b606091505b5091509150610849858383610871565b95945050505050565b34156102815760405163b398979f60e01b815260040160405180910390fd5b60608261088657610881826108d0565b6108c9565b815115801561089d57506001600160a01b0384163b155b156108c657604051639996b31560e01b81526001600160a01b038516600482015260240161041e565b50805b9392505050565b8051156108e05780518082602001fd5b604051630a12f52160e11b815260040160405180910390fd5b60006020828403121561090b57600080fd5b5035919050565b80356001600160a01b038116811461092957600080fd5b919050565b634e487b7160e01b600052604160045260246000fd5b6000806040838503121561095757600080fd5b61096083610912565b9150602083013567ffffffffffffffff8082111561097d57600080fd5b818501915085601f83011261099157600080fd5b8135818111156109a3576109a361092e565b604051601f8201601f19908116603f011681019083821181831017156109cb576109cb61092e565b816040528281528860208487010111156109e457600080fd5b8260208601602083013760006020848301015280955050505050509250929050565b60005b83811015610a21578181015183820152602001610a09565b50506000910152565b6020815260008251806020840152610a49816040850160208701610a06565b601f01601f19169190910160400192915050565b600060208284031215610a6f57600080fd5b6108c982610912565b600060018201610a9857634e487b7160e01b600052601160045260246000fd5b5060010190565b600060208284031215610ab157600080fd5b5051919050565b60008251610aca818460208701610a06565b919091019291505056fe360894a13ba1a3210667c828492db98dca3e2076cc3735a920a3ca505d382bbca26469706673582212200adc92698be3f8fd0f70c789945b5a3bae40a85c3643289fdc68a6c9d021028b64736f6c63430008190033","linkReferences":{}},"methodIdentifiers":{"UPGRADE_INTERFACE_VERSION()":"ad3cb1cc","increment()":"d09de08a","initialize(address)":"c4d66de8","number()":"8381f58a","owner()":"8da5cb5b","proxiableUUID()":"52d1902d","renounceOwnership()":"715018a6","setNumber(uint256)":"3fb5c1cb","transferOwnership(address)":"f2fde38b","upgradeToAndCall(address,bytes)":"4f1ef286"},"storageLayout":{"storage":[{"astId":48441,"contract":"src/Counter.sol:Counter","label":"number","offset":0,"slot":"0","type":"t_uint256"}],"types":{"t_uint256":{"encoding":"inplace","label":"uint256","numberOfBytes":"32"}}},"id":58}