{"abi":[{"type":"constructor","inputs":[],"stateMutability":"nonpayable"},{"type":"function","name":"UPGRADE_INTERFACE_VERSION","inputs":[],"outputs":[{"name":"","type":"string","internalType":"string"}],"stateMutability":"view"},{"type":"function","name":"decrement","inputs":[],"outputs":[],"stateMutability":"nonpayable"},{"type":"function","name":"increment","inputs":[],"outputs":[],"stateMutability":"nonpayable"},{"type":"function","name":"initialize","inputs":[{"name":"initialOwner","type":"address","internalType":"address"}],"outputs":[],"stateMutability":"nonpayable"},{"type":"function","name":"number","inputs":[],"outputs":[{"name":"","type":"uint256","internalType":"uint256"}],"stateMutability":"view"},{"type":"function","name":"owner","inputs":[],"outputs":[{"name":"","type":"address","internalType":"address"}],"stateMutability":"view"},{"type":"function","name":"proxiableUUID","inputs":[],"outputs":[{"name":"","type":"bytes32","internalType":"bytes32"}],"stateMutability":"view"},{"type":"function","name":"renounceOwnership","inputs":[],"outputs":[],"stateMutability":"nonpayable"},{"type":"function","name":"setNumber","inputs":[{"name":"newNumber","type":"uint256","internalType":"uint256"}],"outputs":[],"stateMutability":"nonpayable"},{"type":"function","name":"transferOwnership","inputs":[{"name":"newOwner","type":"address","internalType":"address"}],"outputs":[],"stateMutability":"nonpayable"},{"type":"function","name":"upgradeToAndCall","inputs":[{"name":"newImplementation","type":"address","internalType":"address"},{"name":"data","type":"bytes","internalType":"bytes"}],"outputs":[],"stateMutability":"payable"},{"type":"event","name":"Initialized","inputs":[{"name":"version","type":"uint64","indexed":false,"internalType":"uint64"}],"anonymous":false},{"type":"event","name":"NumberDecremented","inputs":[{"name":"newNumber","type":"uint256","indexed":false,"internalType":"uint256"}],"anonymous":false},{"type":"event","name":"NumberIncremented","inputs":[{"name":"newNumber","type":"uint256","indexed":false,"internalType":"uint256"}],"anonymous":false},{"type":"event","name":"NumberSet","inputs":[{"name":"newNumber","type":"uint256","indexed":false,"internalType":"uint256"}],"anonymous":false},{"type":"event","name":"OwnershipTransferred","inputs":[{"name":"previousOwner","type":"address","indexed":true,"internalType":"address"},{"name":"newOwner","type":"address","indexed":true,"internalType":"address"}],"anonymous":false},{"type":"event","name":"Upgraded","inputs":[{"name":"implementation","type":"address","indexed":true,"internalType":"address"}],"anonymous":false},{"type":"error","name":"AddressEmptyCode","inputs":[{"name":"target","type":"address","internalType":"address"}]},{"type":"error","name":"ERC1967InvalidImplementation","inputs":[{"name":"implementation","type":"address","internalType":"address"}]},{"type":"error","name":"ERC1967NonPayable","inputs":[]},{"type":"error","name":"FailedInnerCall","inputs":[]},{"type":"error","name":"InvalidInitialization","inputs":[]},{"type":"error","name":"NotInitializing","inputs":[]},{"type":"error","name":"OwnableInvalidOwner","inputs":[{"name":"owner","type":"address","internalType":"address"}]},{"type":"error","name":"OwnableUnauthorizedAccount","inputs":[{"name":"account","type":"address","internalType":"address"}]},{"type":"error","name":"UUPSUnauthorizedCallContext","inputs":[]},{"type":"error","name":"UUPSUnsupportedProxiableUUID","inputs":[{"name":"slot","type":"bytes32","internalType":"bytes32"}]}],"bytecode":{"object":"0x60a06040523060805234801561001457600080fd5b5061001d610022565b6100d4565b7ff0c57e16840df040f15088dc2f81fe391c3923bec73e23a9662efc9c229c6a00805468010000000000000000900460ff16156100725760405163f92ee8a960e01b815260040160405180910390fd5b80546001600160401b03908116146100d15780546001600160401b0319166001600160401b0390811782556040519081527fc7f505b2f371ae2175ee4913f4499e1f2633a7b5936321eed1cdaeb6115181d29060200160405180910390a15b50565b608051610bb16100fd600039600081816104a6015281816104cf01526106150152610bb16000f3fe60806040526004361061009c5760003560e01c80638381f58a116100645780638381f58a146101285780638da5cb5b1461013e578063ad3cb1cc14610185578063c4d66de8146101c3578063d09de08a146101e3578063f2fde38b146101f857600080fd5b80632baeceb7146100a15780633fb5c1cb146100b85780634f1ef286146100d857806352d1902d146100eb578063715018a614610113575b600080fd5b3480156100ad57600080fd5b506100b6610218565b005b3480156100c457600080fd5b506100b66100d3366004610961565b610269565b6100b66100e63660046109ac565b6102a4565b3480156100f757600080fd5b506101006102c3565b6040519081526020015b60405180910390f35b34801561011f57600080fd5b506100b66102e0565b34801561013457600080fd5b5061010060005481565b34801561014a57600080fd5b507f9016d09d72d40fdae2fd8ceac6b6234c7706214fd39c1cd1e609a0528c199300546040516001600160a01b03909116815260200161010a565b34801561019157600080fd5b506101b6604051806040016040528060058152602001640352e302e360dc1b81525081565b60405161010a9190610a92565b3480156101cf57600080fd5b506100b66101de366004610ac5565b6102f4565b3480156101ef57600080fd5b506100b6610411565b34801561020457600080fd5b506100b6610213366004610ac5565b610458565b60008054908061022783610af6565b91905055507fbad136607945e6d9a17279e7185ec9db741dda16b98375b35aff04d51f96db8f60005460405161025f91815260200190565b60405180910390a1565b60008190556040518181527f9ec8254969d1974eac8c74afb0c03595b4ffe0a1d7ad8a7f82ed31b9c85425919060200160405180910390a150565b6102ac61049b565b6102b582610540565b6102bf8282610548565b5050565b60006102cd61060a565b50600080516020610b5c83398151915290565b6102e8610653565b6102f260006106ae565b565b7ff0c57e16840df040f15088dc2f81fe391c3923bec73e23a9662efc9c229c6a008054600160401b810460ff16159067ffffffffffffffff1660008115801561033a5750825b905060008267ffffffffffffffff1660011480156103575750303b155b905081158015610365575080155b156103835760405163f92ee8a960e01b815260040160405180910390fd5b845467ffffffffffffffff1916600117855583156103ad57845460ff60401b1916600160401b1785555b6103b68661071f565b6103be610730565b6005600055831561040957845460ff60401b19168555604051600181527fc7f505b2f371ae2175ee4913f4499e1f2633a7b5936321eed1cdaeb6115181d29060200160405180910390a15b505050505050565b60008054908061042083610b0d565b91905055507f209c6035516d19d8e68fcdb2bf5bd0a95b70e35f6ca85925c34b9cdfdd71396060005460405161025f91815260200190565b610460610653565b6001600160a01b03811661048f57604051631e4fbdf760e01b8152600060048201526024015b60405180910390fd5b610498816106ae565b50565b306001600160a01b037f000000000000000000000000000000000000000000000000000000000000000016148061052257507f00000000000000000000000000000000000000000000000000000000000000006001600160a01b0316610516600080516020610b5c833981519152546001600160a01b031690565b6001600160a01b031614155b156102f25760405163703e46dd60e11b815260040160405180910390fd5b610498610653565b816001600160a01b03166352d1902d6040518163ffffffff1660e01b8152600401602060405180830381865afa9250505080156105a2575060408051601f3d908101601f1916820190925261059f91810190610b26565b60015b6105ca57604051634c9c8ce360e01b81526001600160a01b0383166004820152602401610486565b600080516020610b5c83398151915281146105fb57604051632a87526960e21b815260048101829052602401610486565b6106058383610738565b505050565b306001600160a01b037f000000000000000000000000000000000000000000000000000000000000000016146102f25760405163703e46dd60e11b815260040160405180910390fd5b336106857f9016d09d72d40fdae2fd8ceac6b6234c7706214fd39c1cd1e609a0528c199300546001600160a01b031690565b6001600160a01b0316146102f25760405163118cdaa760e01b8152336004820152602401610486565b7f9016d09d72d40fdae2fd8ceac6b6234c7706214fd39c1cd1e609a0528c19930080546001600160a01b031981166001600160a01b03848116918217845560405192169182907f8be0079c531659141344cd1fd0a4f28419497f9722a3daafe3b4186f6b6457e090600090a3505050565b61072761078e565b610498816107d7565b6102f261078e565b610741826107df565b6040516001600160a01b038316907fbc7cd75a20ee27fd9adebab32041f755214dbc6bffa90cc0225b39da2e5c2d3b90600090a2805115610786576106058282610844565b6102bf6108ba565b7ff0c57e16840df040f15088dc2f81fe391c3923bec73e23a9662efc9c229c6a0054600160401b900460ff166102f257604051631afcd79f60e31b815260040160405180910390fd5b61046061078e565b806001600160a01b03163b60000361081557604051634c9c8ce360e01b81526001600160a01b0382166004820152602401610486565b600080516020610b5c83398151915280546001600160a01b0319166001600160a01b0392909216919091179055565b6060600080846001600160a01b0316846040516108619190610b3f565b600060405180830381855af49150503d806000811461089c576040519150601f19603f3d011682016040523d82523d6000602084013e6108a1565b606091505b50915091506108b18583836108d9565b95945050505050565b34156102f25760405163b398979f60e01b815260040160405180910390fd5b6060826108ee576108e982610938565b610931565b815115801561090557506001600160a01b0384163b155b1561092e57604051639996b31560e01b81526001600160a01b0385166004820152602401610486565b50805b9392505050565b8051156109485780518082602001fd5b604051630a12f52160e11b815260040160405180910390fd5b60006020828403121561097357600080fd5b5035919050565b80356001600160a01b038116811461099157600080fd5b919050565b634e487b7160e01b600052604160045260246000fd5b600080604083850312156109bf57600080fd5b6109c88361097a565b9150602083013567ffffffffffffffff808211156109e557600080fd5b818501915085601f8301126109f957600080fd5b813581811115610a0b57610a0b610996565b604051601f8201601f19908116603f01168101908382118183101715610a3357610a33610996565b81604052828152886020848701011115610a4c57600080fd5b8260208601602083013760006020848301015280955050505050509250929050565b60005b83811015610a89578181015183820152602001610a71565b50506000910152565b6020815260008251806020840152610ab1816040850160208701610a6e565b601f01601f19169190910160400192915050565b600060208284031215610ad757600080fd5b6109318261097a565b634e487b7160e01b600052601160045260246000fd5b600081610b0557610b05610ae0565b506000190190565b600060018201610b1f57610b1f610ae0565b5060010190565b600060208284031215610b3857600080fd5b5051919050565b60008251610b51818460208701610a6e565b919091019291505056fe360894a13ba1a3210667c828492db98dca3e2076cc3735a920a3ca505d382bbca2646970667358221220f83ec056a5585ea06e46119718abd67bc957f08b41c2b74514d0df65ede8bad164736f6c63430008190033","linkReferences":{}},"methodIdentifiers":{"UPGRADE_INTERFACE_VERSION()":"ad3cb1cc","decrement()":"2baeceb7","increment()":"d09de08a","initialize(address)":"c4d66de8","number()":"8381f58a","owner()":"8da5cb5b","proxiableUUID()":"52d1902d","renounceOwnership()":"715018a6","setNumber(uint256)":"3fb5c1cb","transferOwnership(address)":"f2fde38b","upgradeToAndCall(address,bytes)":"4f1ef286"},"storageLayout":{"storage":[{"astId":48525,"contract":"src/CounterV2.sol:CounterV2","label":"number","offset":0,"slot":"0","type":"t_uint256"}],"types":{"t_uint256":{"encoding":"inplace","label":"uint256","numberOfBytes":"32"}}},"id":59}