{
  "abi": [
    {
      "type": "function",
      "name": "MINIMUM_ETH",
      "inputs": [],
      "outputs": [
        {
          "name": "",
          "type": "uint256",
          "internalType": "uint256"
        }
      ],
      "stateMutability": "view"
    },
    {
      "type": "function",
      "name": "getPlayerInfo",
      "inputs": [
        {
          "name": "fundingAddress",
          "type": "address",
          "internalType": "address"
        }
      ],
      "outputs": [
        {
          "name": "",
          "type": "tuple",
          "internalType": "struct Gamelord.PlayerInfo",
          "components": [
            {
              "name": "amountWagered",
              "type": "uint256",
              "internalType": "uint256"
            },
            {
              "name": "team",
              "type": "uint8",
              "internalType": "enum Gamelord.Team"
            }
          ]
        }
      ],
      "stateMutability": "view"
    },
    {
      "type": "function",
      "name": "getPlayers",
      "inputs": [],
      "outputs": [
        {
          "name": "",
          "type": "address[]",
          "internalType": "address[]"
        }
      ],
      "stateMutability": "view"
    },
    {
      "type": "function",
      "name": "releaseFunds",
      "inputs": [
        {
          "name": "winningTeam",
          "type": "uint8",
          "internalType": "enum Gamelord.Team"
        }
      ],
      "outputs": [],
      "stateMutability": "nonpayable"
    },
    {
      "type": "function",
      "name": "wager",
      "inputs": [
        {
          "name": "team",
          "type": "uint8",
          "internalType": "enum Gamelord.Team"
        }
      ],
      "outputs": [],
      "stateMutability": "payable"
    }
  ],
  "bytecode": {
    "object": "0x6080604052348015600f57600080fd5b50610c4e8061001f6000396000f3fe60806040526004361061004a5760003560e01c806355507b931461004f57806359328401146100715780638b5b9ccc146100a7578063ba7d4be7146100c9578063d5e3af45146100dc575b600080fd5b34801561005b57600080fd5b5061006f61006a36600461080b565b610105565b005b34801561007d57600080fd5b5061009161008c366004610833565b6103e0565b60405161009e9190610872565b60405180910390f35b3480156100b357600080fd5b506100bc610452565b60405161009e91906108ab565b61006f6100d736600461080b565b6104b4565b3480156100e857600080fd5b506100f76611c37937e0800081565b60405190815260200161009e565b6000805b60015481101561019e57600060018281548110610128576101286108f8565b6000918252602090912001546001600160a01b031690508360018111156101515761015161085c565b6001600160a01b038216600090815260208190526040902060019081015460ff16908111156101825761018261085c565b03610195578261019181610924565b9350505b50600101610109565b5060006101ab8247610953565b905060005b600154811015610370576000600182815481106101cf576101cf6108f8565b6000918252602090912001546001600160a01b031690508460018111156101f8576101f861085c565b6001600160a01b038216600090815260208190526040902060019081015460ff16908111156102295761022961085c565b036103675761025960405180604001604052806009815260200168706c6179657220257360b81b815250826105a8565b6102856040518060400160405280600a81526020016962616c616e636520257360b01b815250476105f1565b6102b960405180604001604052806012815260200171616d6f756e74506572506c6179657220257360701b815250846105f1565b600080826001600160a01b03168560405160006040518083038185875af1925050503d8060008114610307576040519150601f19603f3d011682016040523d82523d6000602084013e61030c565b606091505b50915091508161031b84610636565b8260405160200161032d92919061098b565b604051602081830303815290604052906103635760405162461bcd60e51b815260040161035a9190610a16565b60405180910390fd5b5050505b506001016101b0565b5060005b6001548110156103ce5760008060018381548110610394576103946108f8565b60009182526020808320909101546001600160a01b0316835282019290925260400181209081556001908101805460ff1916905501610374565b506103db600160006107d9565b505050565b60408051808201909152600080825260208201526001600160a01b03821660009081526020818152604091829020825180840190935280548352600180820154919284019160ff16908111156104385761043861085c565b60018111156104495761044961085c565b90525092915050565b606060018054806020026020016040519081016040528092919081815260200182805480156104aa57602002820191906000526020600020905b81546001600160a01b0316815260019091019060200180831161048c575b5050505050905090565b6611c37937e0800034101561050b5760405162461bcd60e51b815260206004820152601b60248201527f596f75206e65656420746f207370656e64206d6f726520455448210000000000604482015260640161035a565b336000908152602081905260408120805434929061052a908490610a29565b909155505033600090815260208190526040902060019081018054839260ff1990911690838181111561055f5761055f61085c565b0217905550506001805480820182556000919091527fb10e2d527612073b26eecdfd717e6a320cf44b4afac2b0732d9fcbe2b7fa0cf60180546001600160a01b03191633179055565b6105ed82826040516024016105be929190610a42565b60408051601f198184030181529190526020810180516001600160e01b031663319af33360e01b179052610776565b5050565b6105ed8282604051602401610607929190610a6c565b60408051601f198184030181529190526020810180516001600160e01b03166309710a9d60e41b179052610776565b60408051602880825260608281019093526000919060208201818036833701905050905060005b601481101561076f576000610673826013610a8e565b61067e906008610aa1565b610689906002610b9c565b61069c906001600160a01b038716610953565b60f81b9050600060108260f81c6106b39190610ba8565b60f81b905060008160f81c60106106ca9190610bca565b8360f81c6106d89190610be6565b60f81b90506106e682610782565b856106f2866002610aa1565b81518110610702576107026108f8565b60200101906001600160f81b031916908160001a90535061072281610782565b8561072e866002610aa1565b610739906001610a29565b81518110610749576107496108f8565b60200101906001600160f81b031916908160001a905350506001909201915061065d9050565b5092915050565b61077f816107b8565b50565b6000600a60f883901c10156107a9576107a060f883901c6030610bff565b60f81b92915050565b6107a060f883901c6057610bff565b80516a636f6e736f6c652e6c6f67602083016000808483855afa5050505050565b508054600082559060005260206000209081019061077f91905b8082111561080757600081556001016107f3565b5090565b60006020828403121561081d57600080fd5b81356002811061082c57600080fd5b9392505050565b60006020828403121561084557600080fd5b81356001600160a01b038116811461082c57600080fd5b634e487b7160e01b600052602160045260246000fd5b81518152602082015160408201906002811061089e57634e487b7160e01b600052602160045260246000fd5b8060208401525092915050565b6020808252825182820181905260009190848201906040850190845b818110156108ec5783516001600160a01b0316835292840192918401916001016108c7565b50909695505050505050565b634e487b7160e01b600052603260045260246000fd5b634e487b7160e01b600052601160045260246000fd5b6000600182016109365761093661090e565b5060010190565b634e487b7160e01b600052601260045260246000fd5b6000826109625761096261093d565b500490565b60005b8381101561098257818101518382015260200161096a565b50506000910152565b7502330b4b632b2103a379039b2b7321022ba34103a37960551b8152600083516109bc816016850160208801610967565b6101d160f51b60169184019182015283516109de816018840160208801610967565b01601801949350505050565b60008151808452610a02816020860160208601610967565b601f01601f19169290920160200192915050565b60208152600061082c60208301846109ea565b80820180821115610a3c57610a3c61090e565b92915050565b604081526000610a5560408301856109ea565b905060018060a01b03831660208301529392505050565b604081526000610a7f60408301856109ea565b90508260208301529392505050565b81810381811115610a3c57610a3c61090e565b8082028115828204841417610a3c57610a3c61090e565b600181815b80851115610af3578160001904821115610ad957610ad961090e565b80851615610ae657918102915b93841c9390800290610abd565b509250929050565b600082610b0a57506001610a3c565b81610b1757506000610a3c565b8160018114610b2d5760028114610b3757610b53565b6001915050610a3c565b60ff841115610b4857610b4861090e565b50506001821b610a3c565b5060208310610133831016604e8410600b8410161715610b76575081810a610a3c565b610b808383610ab8565b8060001904821115610b9457610b9461090e565b029392505050565b600061082c8383610afb565b600060ff831680610bbb57610bbb61093d565b8060ff84160491505092915050565b60ff818116838216029081169081811461076f5761076f61090e565b60ff8281168282160390811115610a3c57610a3c61090e565b60ff8181168382160190811115610a3c57610a3c61090e56fea264697066735822122008473c2f75cf55b53f0e711da3ca7d31e15f2d0ea3eb6436986579d3f08a225f64736f6c63430008190033",
    "linkReferences": {}
  },
  "methodIdentifiers": {
    "MINIMUM_ETH()": "d5e3af45",
    "getPlayerInfo(address)": "59328401",
    "getPlayers()": "8b5b9ccc",
    "releaseFunds(uint8)": "55507b93",
    "wager(uint8)": "ba7d4be7"
  },
  "id": 25
}